:1000000058160020A52F0000CB8A0000912F000079
:10001000912F0000912F0000912F0000912F0000E0
:10002000000000000000000000000000513100004E
:10003000912F00000000000011310000912F0000FE
:10004000F1320000F1320000F1320000F132000024
:10005000F1320000F1320000F1320000F132000014
:10006000F1320000F1320000F1320000F132000004
:10007000F1320000F1320000F1320000F1320000F4
:10047C0053B94AB9002908BF00281CBF4FF0FF31FF
:10048C004FF0FF3000F00CB8ADF1080C6DE904CE64
:10049C0000F010F8DDF804E0DDE9022304B0704749
:1004AC00704700BF034613F8012B002AFBD1181A22
:1004BC00013870472DE9F04786468C460846089E61
:1004CC00154674461946002B40F0C1808542B2FA9D
:1004DC0082F245D94AB1C2F1200300FA02FC9540E0
:1004EC0094402EFA03F343EA0C0C4FEA154EA8B2D3
:1004FC00230CBCFBFEF80EFB18CC08FB00F943EAFE
:10050C000C43994528D9EB1808F1FF3704D29945CB
:10051C0002D9A8F102072B44A3EB0903A4B2B3FB45
:10052C00FEFC0EFB1C330CFB00F044EA0344A0421F
:10053C0014D92C190CF1FF3304D2A04202D9ACF11E
:10054C0002032C44241A43EA07401EB1D440002372
:10055C0034607360BDE8F0874746DDE76346F1E73A
:10056C0092BB431B01214FEA154EAFB2200CB3FBDB
:10057C00FEFC0EFB1C330CFB07F840EA03439845CA
:10058C0061D9EB180CF1FF3004D2984502D9ACF1CB
:10059C0002002B44A3EB0803A4B2B3FBFEFC0EFB3E
:1005AC001C330CFB07F744EA0344A7424DD92C1922
:1005BC000CF1FF3304D2A74202D9ACF102032C4454
:1005CC00E41B43EA0040C0E7C2F12003954094408D
:1005DC0020FA03F12EFA03F34FEA154E9040AFB216
:1005EC000343B1FBFEFC0EFB1C10190C0CFB07F8B3
:1005FC0041EA0041884522D969180CF1FF3004D238
:10060C00884502D9ACF102002944A1EB08019BB248
:10061C00B1FBFEFC0EFB1C110CFB07F743EA01437C
:10062C009F420ED9EB180CF1FF3104D29F4202D934
:10063C00ACF102012B44DB1B41EA004193E760461D
:10064C00E3E76146F7E76046A4E76346B8E7834211
:10065C0006D916B9002108467CE7C6E900E0F9E79F
:10066C00B3FA83F78FB9834201D3724508D8BEEB36
:10067C00020460EB030301209C461EB9002169E7CC
:10068C003846FAE7C6E9004CF8E7C7F1200CBB4046
:10069C000EFA07F522FA0CF42EFA0CF1BA401C43B0
:1006AC0020FA0CF3B8404FEA144901431FFA84FEB8
:1006BC00B3FBF9F809FB18300B0C08FB0EFA43EAF4
:1006CC0000439A4540D9E31808F1FF3004D29A450B
:1006DC0002D9A8F102002344A3EB0A0389B2B3FBAD
:1006EC00F9F809FB183308FB0EFE41EA03418E456D
:1006FC002CD9611808F1FF3304D28E4502D9A8F128
:10070C000203214443EA0040A1EB0E01A0FB029836
:10071C004145CE46434602D306D14D4504D201385D
:10072C00B9EB020E68EB0403002EA7D0B5EB0E025A
:10073C0061EB030101FA0CFC22FA07F3F9404CEAD5
:10074C000303C6E9003199E74046C5E74346D9E7BC
:10075C0080B500AF88B06A46084BC2E905304FF44B
:10076C0000739383064B42F8103F00234FF4E6517D
:10077C00044801F08BFDBD4680BD00BF849D000088
:10078C0003000001B49A0000B0B588B00022062125
:10079C00CA2002AF02F002FD08F07AF80321314AB8
:1007AC00314808F0E4F801F011FC04460028FAD1B5
:1007BC002E4B2F4A7B604FF4C0633B812D4B07F1CE
:1007CC000C01FB604FF440733B820723BB742A4B34
:1007DC00381D7B6105F042FA284B984209D0284914
:1007EC0028486823284A07F0B1FE6821264807F0FC
:1007FC00A4FE381D05F0D0FA4FF47A71381D05F0BF
:10080C00EBFA05464FF47A730321204A164808F098
:10081C00B7F801232A4600932146381D05F032FB18
:10082C00381D05F077FA381D05F098FA184A194B5F
:10083C006D4688B0002818BF134602AA1649C2E9B3
:10084C0005134FF400739383144B42F8103F4FF48D
:10085C00E6512346044801F019FDAD4601F0B6FB04
:10086C00FCE700BFC99D0000B49A000000A00C502A
:10087C00138400000024F400EC9D00000000AD0B7C
:10088C00419E0000589E0000F99D0000759E0000DE
:10089C00B89D0000C09D00008A9E0000030000016E
:1008AC00B2F5802F2DE9F0410ED33C4940F2EB1309
:1008BC003B4A3C4807F04AFE3B4807F047FE40F2F3
:1008CC00EB11374807F039FE042A0CD837494FF49E
:1008DC00F973334A334807F039FE354807F036FED2
:1008EC004FF4F971EDE7043ACD1D8E1825F007058C
:1008FC0026F00706761B172E4FEAD6070CD82D4983
:10090C0040F2FB13264A274807F020FE284807F040
:10091C001DFE40F2FB11D4E7B7FA87F44FF0000844
:10092C00C4F12002C4F12404A4000734E408631CBD
:10093C00BB420560AF60C5F80C800CD91E494FF462
:10094C000373174A174807F001FE194807F0FEFD1C
:10095C004FF40371B5E74146920005F1100008F021
:10096C0091FB630043F001036B803B1B05EBC4025E
:10097C005900A5F800805180AA1925F83440A2F836
:10098C000280AB5305EBC7035A88214642F00102A3
:10099C005A802846BDE8F04107F041BD769F000023
:1009AC00A89E0000589E00008C9F0000A39F000092
:1009BC00C49F0000DD9F000006A000002DE9F04F51
:1009CC0091B0009302F004030293C2F3C20301330B
:1009DC00840705460E46DDF868800392059340F0C7
:1009EC00F681041D30B1072909D86FF01B0011B036
:1009FC00BDE8F08F01F00706341DC6F108064FF074
:100A0C0000094FF0040B009B4F46013B01934FF044
:100A1C00FF324B46DA46CDF810900DB100992160AB
:100A2C000598002800F3D78098480099814203D399
:100A3C0097488142C0F0CF800399A4EB050E89073B
:100A4C004FEA9E0040F1E2804FF0000CCCE07A2897
:100A5C005AD84B280CD8472856D829282AD82528C4
:100A6C0051D051D8202877D023384342434173E0EA
:100A7C004C382E2848D8DFE800F06F4747474747E7
:100A8C0047474747474749474747474747474759D6
:100A9C004749495959596F496C476F471849184785
:100AAC0047807D49474749477D00002000234FF090
:100ABC00040B39E001212A38C0B201FA00F010EA27
:100ACC000E0F49D110F0625C30D110EA010343D013
:100ADC006046013C5C44B4FBFBF40BFB04F4002DBE
:100AEC0060D0AAEB050CA444B4453FF67EAF0028B9
:100AFC006AD1BAF1040F45D158F8040B20604FF0BD
:100B0C00040A043428E0013A002325E0019B13F881
:100B1C00013C6C2B33D10020019B13F8023C6C2B55
:100B2C000346C4D14FF0080BDA46D2E708F10708A8
:100B3C0028F00708073424F00704F8E802AB35B1B5
:100B4C0006982044B0423FF650AFC4E900AB0023F6
:100B5C0008344FF0080BDA46019911F8010F019196
:100B6C00002800F0BC80002B7FF471AF2528F3D156
:100B7C00012301324FF0040BEDE7184696E70020F5
:100B8C000346A6E7BAF1080F40F09B8008F107086E
:100B9C0028F00708F8E80201C4E900014FF0080A40
:100BAC000834D9E780B9BAF1040F02D108F104086E
:100BBC00A5E7BAF1080F40F0848008F1070828F087
:100BCC00070808F10808E9E705990139059158F873
:100BDC00041B009121E7039988074AD54FF0010CBB
:100BEC00A4EB050E4FEA9E00BEF5007F1ED32949EB
:100BFC004FF41F73284A294807F0A8FC284807F02F
:100C0C00A5FC4FF41F71244807F097FC0F2F0FD849
:100C1C00002D49D007F140010DEB010C0CF8200C14
:100C2C000CF8102C04980130049021E00F2F0CD9F3
:100C3C00184940F28123184A184807F087FC1948D4
:100C4C0007F084FC40F28121DDE7CDB107F14001D2
:100C5C000DEB010EC0B20EF8200C0EF8102CBCF1EE
:100C6C00000FDFD060F07F000EF8200C09F10109B5
:100C7C000137C5F108014FF6DA7E043406916BE7B3
:100C8C00BCF1000F10D00136F2E700BF88910000D4
:100C9C0070CF000079B5000031A00000589E000014
:100CAC005FA0000080A00000029802360028DFD16F
:100CBC000098CDE90632FFF7F5FBDDE90632064474
:100CCC00D6E740F2C623434A4349444807F03EFC6A
:100CDC005146434807F03AFC40F2C62193E7631BA8
:100CEC00B3F5806F0CD33C4940F2D223394A3B48D0
:100CFC0007F02CFC3B4807F029FC40F2D22182E79C
:100D0C001DB9A6F10804E01871E6029A9B08286048
:100D1C002B709DF81030C2B1EB7085F80290B9F1D0
:100D2C00000F05D0002208A8C5F1010C97420ED186
:100D3C004FF0000AC5F101030DF1200801930DF1EC
:100D4C00300B574512D1601B51E66B70E5E710F87C
:100D5C00013B190608D504EB0C0EB64503F07F03D6
:100D6C003FF643AE04F8013B0132DFE7B9F1000F67
:100D7C0003D098F90020002A17DB029BD3B11AF894
:100D8C000B2004F8012B0022019B98182044B04240
:100D9C003FF62BAE98F80000009904F8010B2046A2
:100DAC00039208F062F9039A14440AF1010A08F15B
:100DBC000108C6E798F8002055F822300093029BF2
:100DCC00009845F82230FFF76DFB421CDCE76FF012
:100DDC000D000CE631A0000079B50000589E000013
:100DEC009AA00000AFA000002DE9F04F97B000AF23
:100DFC0089460446D7F880B0FA623B6258B9A949D3
:100E0C004FF46673A84AA94807F0A0FB4FF466712B
:100E1C00A54807F092FBCBF3C00390F802A0BB618E
:100E2C0041B9457800780AEB800020444D4517D82D
:100E3C00A0EB0409E378FB61BAF1000F02D01BF0C0
:100E4C00010F16D1FB6953BBFB6A1BB14946204607
:100E5C003A6A98474D4628465C37BD46BDE8F08F48
:100E6C00461C3046FFF71EFB0130304409F10109E6
:100E7C00DCE7626823787A62FA6A9900796104EB9C
:100E8C008301002A40F002810E464FF000084D46C7
:100E9C0001EB0A094E454CD101EB0A0610E01BF0A0
:100EAC00020FD1D023789A007A61626804EB830137
:100EBC007A62FA6A002A77D14D46904601EB0A060F
:100ECC001BF0050F0CBF02230123FB62FB6906EB31
:100EDC00430A0BF00203BB625645BCD016F8021B4A
:100EEC0016F8013C54F82390714B994502D3714B81
:100EFC00994536D3BB69002B40D0786A07F0E7FAE6
:100F0C0000283BD0E9468AB06A466B4B53617B6A3A
:100F1C00C2E906314FF400731384684B42F8103F5A
:100F2C0000234FF41251664801F0B0F9023DCD4652
:100F3C00D2E716F8013BF96254F82300FFF7B2FA36
:100F4C00D7F88430F96A01304BB1D7F8883098451E
:100F5C003EBFD7F8843023F8180008F10108054487
:100F6C0098E7BB6923B1786A07F0B1FA0028C9D1B8
:100F7C001BF0010F05D1FB6AED1AADE7BB6A002B24
:100F8C00AAD04846FFF78EFAD7F8843053B1D7F879
:100F9C00883098453FBFD7F88420431C22F818307E
:100FAC0008F10108054497E7BAF1000F74D01BF063
:100FBC00040674D0D046002607F1480052463B6127
:100FCC00B96208F052F8B96A3B6901EB0A02BA62DD
:100FDC00FA69F9695200FA60BA6A02EB41023A61A5
:100FEC000BF00202BA60BA6A39698A426AD1627835
:100FFC001BF0020F18BF00217A6208BF4FEA58019C
:10100C00B2181BF0010FD2B240F0E5801BF0040FB8
:10101C0014BF40460020BB616270A070E170204696
:10102C003A6A7969FB6A9847051EFFF614AFBB69EB
:10103C00414623707B6A3A6A6370FB6984F802A0AC
:10104C00E37007F14800FB6A9847B0F10008C0F262
:10105C00F0807B69A9EB0A01C91AFB683A6AC91AC4
:10106C00D7E90A0398470028C0F2E5804FF0000B3F
:10107C00A84408EB000507F1380AB345C0F0AD8071
:10108C0000213A6A0846FB6A9847E4E656464FF058
:10109C00000807F1380091E75646D04695E7B04670
:1010AC0093E700BFC6A0000031A00000589E0000CE
:1010BC008891000070CF0000E1A000000400000146
:1010CC00C49A0000BA6A12F8021B12F8015CBA62E8
:1010DC0054F82500594A904202D3594A904218D3E9
:1010EC00BA693AB1786A7B6007F0F1F97B6800283D
:1010FC007FF479AFBA68002A4CD00F2E40D95149F1
:10110C0040F24C43504A514807F020FA40F24C410F
:10111C007EE6BA693AB1786A7B6007F0D8F97B68E9
:10112C0000287FF460AF1BF0010F0BD00F2E27D9D6
:10113C00444940F24243444A444807F007FA40F21B
:10114C00424165E61BF0040F3FF44DAFB8F10F0FB1
:10115C0009D93F4940F245433B4A3C4807F0F6F970
:10116C0040F2454154E608F1280207F1300008F13D
:10117C00010102EB000808F8105C5FFA81F832E715
:10118C0006F1280207F13000711C161806F8205CD5
:10119C00CEB228E7B8F10F0F09D92D4940F24F43D1
:1011AC00294A2A4807F0D2F940F24F4130E608F1BB
:1011BC00280207F1300C08F10100944407F15802A1
:1011CC0008F1020852FA80F00CF8101C5FFA88F84B
:1011DC0000F8105C07E700201DE71BF80A3054F8F4
:1011EC00239087F83730D7F88430FBB133F81B8065
:1011FC0001213A6AFB6A07F13700984700281ADB8D
:10120C000544B8F1000F06D14846FFF74BF900F141
:10121C0001081FFA88F8414648463A6AFB6A984723
:10122C00002808DB05440BF1010B26E7D7F8848076
:10123C00DEE745460FE605460DE600BF8891000047
:10124C0070CF000084A1000031A00000589E000067
:10125C00A3A10000014B1860704700BF00000020E4
:10126C0080B505460E461746984606F035F90346F6
:10127C0007F07AFF0446DFF81890424649F8003030
:10128C0039463046A84754F8090001F0EDFE00BF7E
:10129C000800000038B50D4604462022002107F056
:1012AC00F1FE0022EB68E361AB68A3612B6823625B
:1012BC006B68A26263622A6923B1591E194208BF86
:1012CC0042F0010222610122002104F12C0007F0FE
:1012DC0060FE48B1054906482F23064A07F036F947
:1012EC002F21044807F029F938BD00BFFAA10000EE
:1012FC00589E0000D4A100002DE9F04F002789B0C2
:10130C00CDE90123436A04468B428846BA460597C9
:10131C00079755D34FF0200B00F11406EFF3118310
:10132C0000938BF31288BFF36F8F3046DDF800907B
:10133C0006F01EFA58B988234A4A4B494B4807F025
:10134C0005F931464A4807F001F9882160E030463A
:10135C0006F032FA079A2AB13946204607F0D7F937
:10136C000023079306A9204607F0FDF806990546C9
:10137C0041452ED32268236A204613F8221003EB32
:10138C00820A21F0030103F822102168424607F07B
:10139C000EF9E3682060984216D00025304606F01E
:1013AC00F5F940B389F31188BFF36F8F059929B113
:1013BC00A2690AB12046904700230593002DADD1B8
:1013CC00504609B0BDE8F08F236943F00803236150
:1013DC00E3E718B1204607F004F9DFE7DDE9013255
:1013EC00134337D0039107F0E0FD039990BB3046CF
:1013FC0006F0CCF978B940F231131A4A1D491B4852
:10140C0007F0A4F831461C4807F0A0F840F231115F
:10141C00144807F092F8009B83F31188BFF36F8F89
:10142C0004F12C00DDE9012305F020F80546EFF36B
:10143C0011898BF31288BFF36F8F304606F098F941
:10144C0000283FF478AFB5FA85F5304606F0B4F9CC
:10145C006D09A3E7204607AB05AA276807F0E0F85B
:10146C0005469BE703A2000030A20000589E000036
:10147C0045A200005BA2000072A200002DE9F04121
:10148C000446C36908460E46984704F114050746FE
:10149C00EFF31188202383F31288BFF36F8F284654
:1014AC0006F066F968B988231A4A1B491B4807F0ED
:1014BC004DF829461A4807F049F88821154807F0D5
:1014CC003CF8284606F078F933783A4643F00103A5
:1014DC0033706168204607F06AF86060204607F0B8
:1014EC0031F9284606F052F968B940F23113094A2D
:1014FC000C490A4807F02AF829460B4807F026F849
:10150C0040F23111DAE788F31188BFF36F8FBDE831
:10151C00F08100BF03A2000030A20000589E000022
:10152C0045A200005BA2000072A200002DE9F84366
:10153C00044600F11407EFF31188202383F312887B
:10154C00BFF36F8F384606F013F9054668B9882348
:10155C00344A3549354806F0F9FF3946344806F027
:10156C00F5FF88212F4806F0E8FF384606F024F9ED
:10157C002369A26813F0080F02D163689A4200D95C
:10158C00636A9B1A002B3FD0216A11F8223001EBC1
:10159C00820913F003003AD0022803D151F82260DB
:1015AC00B60805D1D8071FD44846E36998470646C4
:1015BC00A1683246204606F0FAFF3146A06020466C
:1015CC0007F003F8384606F0E1F810BB40F231138F
:1015DC00144A1849154806F0B9FF3946164806F062
:1015EC00B5FF40F23111BDE743F0020301F82230A0
:1015FC00E3694846A568984729460246204606F006
:10160C00D6FF0025A060DDE71D46A946DAE70546B2
:10161C00FBE788F31188BFF36F8F002D8BD1484601
:10162C00BDE8F88303A2000030A20000589E000021
:10163C0045A200005BA2000072A200002DE9F0415F
:10164C000446C36908460D46984704F1140607463C
:10165C00EFF31188202383F31288BFF36F8F30468A
:10166C0006F086F868B98823274A2849284806F0E6
:10167C006DFF3146274806F069FF8821224806F0A5
:10168C005CFF304606F098F82B786FF300032B7054
:10169C0023699B0705D5E268236A03EB82039D420D
:1016AC0022D12B786FF341032B70D4E9023199428C
:1016BC0004D13A46204606F07AFFA060394620460F
:1016CC0006F083FF304606F061F890B940F2311312
:1016DC000D4A11490E4806F039FF31460F4806F005
:1016EC0035FF40F23111C9E72B6867F39F032B607C
:1016FC00E8E788F31188BFF36F8F04F12C00BDE885
:10170C00F04104F05BBE00BF03A2000030A2000059
:10171C00589E000045A200005BA2000072A20000CF
:10172C0070B5044600F11405EFF31186202383F302
:10173C001288BFF36F8F284606F01AF868B9882311
:10174C001A4A1B491B4806F001FF29461A4806F0A5
:10175C00FDFE8821154806F0F0FE284606F02CF810
:10176C002369A06813F0080F02D16368984213D95B
:10177C00646A241A284606F009F878B940F2311345
:10178C000A4A0E490B4806F0E1FE29460C4806F0C1
:10179C00DDFE40F23111DDE71C1AEBE786F3118810
:1017AC00BFF36F8F201E18BF012070BD03A2000075
:1017BC0030A20000589E000045A200005BA2000071
:1017CC0072A200002DE9F84F0446A38B08461907B6
:1017DC00154612D4022803F0070165D1204606F005
:1017EC00BEFF88B10138042800F23781DFE810F021
:1017FC005C0035018200D400040101280CBF43F0C9
:10180C00100143F02001A1831434204605F0BEFFE3
:10181C00002840F09D819A4940F23113994A9A4828
:10182C0006F094FE2146B1E003F00702501F012898
:10183C001ED80020062A2768C4E9000014D13A46B5
:10184C0003E0E08B0130E0831268002AF9D123F029
:10185C00070343F002022046A28306F080FF90B3F8
:10186C0042F02002A2832EE023F007039AB2F2E7A3
:10187C00042A33D123F007039AB22046A28306F040
:10188C006EFF10B142F02002A283A38B03F0070974
:10189C00894540F0EC80A18BCA0640F1508121F0C3
:1018AC001003A38301F00701D4F81880A38BB8F1BF
:1018BC00000FB9DA0022276823F00703C4E90022DD
:1018CC0043F00103A383A38B03F00709894540F080
:1018DC00CF80002FDFD00026B24644E06B4940F2A7
:1018EC001B136B4A684806F031FE40F21B11684826
:1018FC0006F023FE49B167494FF4AB73644A624862
:10190C0006F024FE4FF4AB71F1E723684BB9624942
:10191C0040F257135E4A5C4806F018FE40F257112D
:10192C00E5E723691E684EB95C494FF4AD73584A1C
:10193C00554806F00BFE4FF4AD71D8E70F468846BC
:10194C004FF00609A38B23F0070343F006039BB269
:10195C00A383A268002A40F08D80002F40F08D8078
:10196C00002E98D0BA4643F0080304F1140B5846E5
:10197C00A38305F00BFF002840F09A80404940F209
:10198C003113404A404806F0E1FD5946444806F000
:10199C00DDFD40F23111ADE0022909D0414940F2A0
:1019AC005D133B4A384806F0D1FD40F25D119EE7CD
:1019BC00E78B4FB13C494FF4AF73354A324806F0D0
:1019CC00C5FD4FF4AF7192E723695E684EB9334998
:1019DC0040F261132E4A2C4806F0B8FD40F261111A
:1019EC0085E7A38BB84623F0070343F004039BB2AF
:1019FC004FF00409A383ACE7012909D02B494FF41C
:101A0C00B273234A204806F0A1FD4FF4B2716EE781
:101A1C0023684BB9204940F265131D4A1A4806F059
:101A2C0095FD40F2651162E723699E684EB91B492A
:101A3C004FF4B473164A144806F088FD4FF4B47191
:101A4C0055E70027A38BB84623F0070343F00503A3
:101A5C009BB24FF00509A3837BE70C4940F26B1353
:101A6C000B4A094806F072FD40F26B113FE7002764
:101A7C0000266EE74FF0010A75E7924673E700BF48
:101A8C005BA2000003A20000589E000079B5000084
:101A9C0087A20000ACA20000B8A20000DBA20000EC
:101AAC0072A20000F2A2000008A3000017A300001D
:101ABC0085F31188BFF36F8FBAF1000F1CD177BB80
:101ACC0016B120462549B047EFF31185202383F347
:101ADC001288BFF36F8F584605F04AFE38BB882337
:101AEC001F4A2049204806F031FD59461F4806F090
:101AFC002DFD88211A48FBE6A1680029DFD00D686E
:101B0C000029DCD043464A462046D1F804A0D047F1
:101B1C001DB12B6829461D46F2E72B46FAE73946DC
:101B2C0043464A4620463F6806F045FEC7E75846FE
:101B3C0005F042FEA38B23F00803A383ABE68B06D0
:101B4C007FF562AE21F02003A38301F0070145E687
:101B5C0085F31188BFF36F8FBDE8F88F7D1B0000F4
:101B6C0003A2000030A20000589E000045A2000015
:101B7C00F8B504460D4600F11406EFF31187202347
:101B8C0083F31288BFF36F8F304605F0F1FD68B90F
:101B9C0088230C4A0C490D4806F0D8FC31460C48F9
:101BAC0006F0D4FC8821074806F0C7FC304605F047
:101BBC0003FEA5613A462046BDE8F8400121FFF737
:101BCC0001BE00BF03A2000030A20000589E00001E
:101BDC0045A200002DE9F04704460F4606F0DBFD58
:101BEC00051E68DB04F11409EFF3118A202383F33B
:101BFC001288BFF36F8F484605F0BAFD804660B976
:101C0C008823384A3849394806F0A0FC49463848F8
:101C1C0006F09CFC8821334842E0484605F0CCFD98
:101C2C004FF6FF72E38BA68B934206F0070645D066
:101C3C00022E15D135460133E383484605F0A6FD47
:101C4C00002841D140F23113264A2A49274806F090
:101C5C007DFC4946284806F079FC40F23111DAE760
:101C6C00062E13D8DFE806F0092D1212090409001C
:101C7C006FF085054FF00008DFE700233B606368D9
:101C8C0083B9C4E9007786B13546F3E71B49174899
:101C9C004FF4E4731A4A06F059FC4FF4E4711848F7
:101CAC0006F04BFC1F606760EDE7524602212046B0
:101CBC00FFF788FD35462846BDE8F0876FF00A052A
:101CCC00D8E76FF00405D5E78AF31188BFF36F8F5F
:101CDC00B8F1000FEFD0002332463946204606F00B
:101CEC006AFDE8E703A2000030A20000589E000045
:101CFC0045A200005BA2000072A2000017A3000026
:101D0C0087A2000008B54268034602F00302032ACA
:101D1C00816002D02AB1002000E0006800225A60E5
:101D2C0008BD054905484523054A06F00FFC452129
:101D3C00034806F002FC00BF79B50000589E000075
:101D4C002DA300002DE9F84FDFF8FCA03F4F814692
:101D5C00AAEB07038F2B88460BD93D4940F23F1362
:101D6C003C4A3D4806F0F2FB40F23F11394806F080
:101D7C00E4FB3A4806F06EFD0646002834D13C469A
:101D8C0005464FF0010B544527D935494FF4A6733E
:101D9C00304A314806F0DAFB324806F0D7FB4FF4F4
:101DAC00A671E3E7237B6BB12368DB680BB120469C
:101DBC00984723681B6943B9636804222046196855
:101DCC0000F03EFA01361034DDE720469847002833
:101DDC00F2D00BFA06F31D43F4E7E3D3B9F1000F8D
:101DEC0002D04FF0010A0DB9BDE8F88FA94695FA5B
:101DFC00A5F4B4FA84F40AFA04F3260107EB0414EC
:101E0C006FEA030B25EA0305237B5BB1BB591B6906
:101E1C00A3B93E44736804222046196809EA0B09E9
:101E2C0000F00EFA002DE2D1B8F1000F04D040F210
:101E3C003910002105F016FB4D46D4E72046984793
:101E4C000028EFD1E5E700BF1C9B00000C9B0000B5
:101E5C0080A3000053A30000589E0000BC07002084
:101E6C00B0A30000D1A30000014B53F82000704731
:101E7C006C9B000008B5034608462BB1044A13605E
:101E8C0000F01CFD002008BD6FF01500FBE700BF43
:101E9C00040000200122014B1A7070470C0900202D
:101EAC0010B50446064806F0D5FC3CB1054BD3E80A
:101EBC00EF1F0139C3E8E21F002AF8D110BD00BFA3
:101ECC00B4070020B807002000200146034BD3E8DC
:101EDC00EF0FC3E8E21F002AF9D17047B4070020C6
:101EEC0070B5FFF7F1FF05460F4C104EB44219D9EF
:101EFC000F4940F2FF130F4A0F4806F027FB0F481B
:101F0C0006F024FB40F2FF110A4806F016FB63684A
:101F1C005B792BB123685B6813B12946204698473F
:101F2C001034E3E7F3D370BD0C9B00001C9B000046
:101F3C00B0A3000053A30000589E0000D1A30000E2
:101F4C0010B5044C04492046FFF7A4F9034B1C6060
:101F5C0010BD00BF70010020589B0000AC07002092
:101F6C0008B50023064A07491370074A074813604F
:101F7C00074A1360FFF77EFFBDE80840FFF7E0BF9C
:101F8C000D09002040420F00B40700205D880000BE
:101F9C00B80700200146002200230148FFF7ACB926
:101FAC00700100200148FFF7C1BA00BF700100208A
:101FBC00024B01461868FFF741BB00BFAC0700207D
:101FCC000148FFF7ADBB00BF7001002070B52E4B70
:101FDC001878002857D0FFF7E5FF054640B32B4B88
:101FEC00D3E8EF1F0139C3E8E21F002AF8D1284CCF
:101FFC00284EB44218D9284940F2F313274A2848EE
:10200C0006F0A4FA274806F0A1FA40F2F31123488F
:10201C0006F093FA63685B7923B12368294620465E
:10202C001B6898471034E4E7F4D32846FFF7C0FF49
:10203C001D4B1E4C1B68002B19DD06F0F8FF4FF4EE
:10204C007A75A0FB050647F61222002305FB0161F9
:10205C00FEF70EFAD4E90032C01A40F2E93361EB14
:10206C000201984271F1000101D3FFF739FFD4E965
:10207C00003213F57A7342F10002C4E90032BDE874
:10208C007040FFF79DBF70BD0C090020B807002001
:10209C000C9B00001C9B0000B0A3000053A300008D
:1020AC00589E0000D1A30000B4070020C0050020FA
:1020BC0013B52A4806F0CEFB294B1B78002B35D0E4
:1020CC00EFF31184202383F31288BFF36F8F25481D
:1020DC0005F04EFB68B98823234A2449244806F0AE
:1020EC0035FA2049234806F031FA88211E4806F0BB
:1020FC0024FA1C4805F060FBFFF768FF194805F04F
:10210C0045FB68B940F23113174A1B49184806F0D1
:10211C001DFA1449194806F019FA40F23111E5E795
:10212C0084F31188BFF36F8F02B010BD144B1B6882
:10213C00002BF9D038B9002200231248CDE9002336
:10214C0005F06AFEF0E70928EED10E4806F071FFA3
:10215C000D4802B0BDE8104004F030B9B8070020BB
:10216C000D090020A807002003A2000030A20000E7
:10217C00589E000045A200005BA2000072A2000065
:10218C00B0070020C8050020B001002010B5064B98
:10219C0004461B6898472146A0600448FFF76EF977
:1021AC00BDE81040FFF784BF040000207001002040
:1021BC0070B5154D297829BB0120FFF7C3FD134CD1
:1021CC00134EB44217D913494FF4DC73124A134817
:1021DC0006F0BCF9124806F0B9F94FF4DC710E4860
:1021EC0006F0ABF963685B791BB1236820469B68EA
:1021FC0098471034E5E7F5D3FFF7E8FE0028FBD14C
:10220C0001232B7070BD00BF0D0900200C9B00003A
:10221C001C9B0000B0A3000053A30000589E0000BC
:10222C00D1A30000044A054B9B1AB1EBD30F34BF6A
:10223C0052F8310000207047B49A00000C9B00004B
:10224C000E4B10B5C31A1B110133DBB248B90C4944
:10225C000C48DF230C4A06F079F9DF210A4806F016
:10226C006CF94468237143689A71012243681960C0
:10227C0043685A71BDE81040FFF70CBE0C9B000080
:10228C0074A40000589E00003CA400002DE9F04FFF
:10229C008FB0C1F34A2804AF0D469146B8607B60FD
:1022AC000C0DB8F1000F68D000264FF0040B4FF066
:1022BC000A0A07F11403C7F80C80C7E907667E62A7
:1022CC000193CDF808B0CDF800A007F11C033246FD
:1022DC004846F968FEF788FDB0F5006F03461CD33D
:1022EC006C468AB0D9F8041004AB2C481A46C3E9E2
:1022FC00050140F2FF71D9614FF400711984284B2C
:10230C0042F8103F4FF4125133462648FFF7BEFFF8
:10231C00A5462C37BD46BDE8F08FC0F30A0804F182
:10232C001700184420F0070080083B60FFF732FECE
:10233C0068F35325044640B33B6800F11001C7E92C
:10234C00083607F11403F961CDE900A3CDF808B004
:10235C004846154AF96807F11C03FEF745FD0028AD
:10236C0013DA124912484FF4A373124A06F0EEF82E
:10237C004FF4A3710F4806F0E0F804F1170020F0B9
:10238C0007008008FFF706FE044668F353252A462B
:10239C0020467B68B96806F09AFABAE794A4000064
:1023AC0004000001D49A0000AF88000000A50000D2
:1023BC00589E0000D3A400002DE9F04F87B00446CE
:1023CC00DDE9106ADDE9127993469846039127B34B
:1023DC003B46524610210020CDF80090CDF81490C9
:1023EC00FEF7ECFA051E0BDA264940F26513264A75
:1023FC00264806F0ABF840F26511234806F09DF82C
:10240C00B5F5006F0ADB40F2FF730221204A214828
:10241C0007B0BDE8F04F06F0B3BA3D4606F1170021
:10242C00284420F007008008FFF7B4FD04F00704EF
:10243C000BF0070BE40044EA8B1444EA452444EA0D
:10244C0006540646A0B19FB13B4652462946CDF8EC
:10245C0000901030FEF7B2FA002809DA094940F270
:10246C008513094A094806F071F840F28511C4E752
:10247C00434622463046039907B0BDE8F04F06F0BC
:10248C0026BA00BFFFA40000D3A40000589E000091
:10249C0009A50000D49A0000406820B1034BC01A73
:1024AC0040F3CF0070474FF0FF307047B49A0000F4
:1024BC000EB403B503AB53F8042B01460448019347
:1024CC0001F0B2F902B05DF804EB03B0704700BF45
:1024DC00FD240000CA0605D48B064CBF02490349F3
:1024EC00FFF7E6BF704700BF5DCA000041A50000C2
:1024FC0038B54B6805461A68CB680C469A4202D12F
:10250C00084606F055FA6368D3E8EF2F511CC3E870
:10251C00E01F0028F8D1A3689D5463681A68E3682B
:10252C009A4209D9054906487B23064A06F00EF85B
:10253C007B21044806F001F8002038BD73A500008B
:10254C00589E000044A500002DE9F04F89B09B4631
:10255C00149B9DF84CA00693159B04460593169B63
:10256C000D469046179E0493BAF1000F00F0AD8013
:10257C00BAF1040F0BD9A34940F24D23A24AA34848
:10258C0005F0E4FF40F24D219F4805F0D6FF06F41C
:10259C008073079306F083F906F0020902460028BF
:1025AC003FD020469A49FFF783FF0746B9F1000F49
:1025BC0008D016F0440F36D12A4620469549FFF72D
:1025CC0077FF074406F0010353B1934B204653F8B1
:1025DC002A20924B9249002A08BF1A46FFF768FF3F
:1025EC0006F48073002B4AD006F00803002B64D14C
:1025FC00B8F1000F67D0424620468A49FFF758FFD2
:10260C000546069B3D44002B6ED1049B002B40F0ED
:10261C008380F30700F1F08031462046FFF75AFF24
:10262C00E4E00746C2E7804B18680028C9D07F4B0E
:10263C004FF47A791B684FF46161B5FBF3F5B5FB88
:10264C00F0F300FB135509FB05F5B3FBF1F2B5FBF9
:10265C00F0FE4FF03C0C01FB123100FB1E55B1FBA0
:10266C00FCF309FB05F5B5FBF0F50CFB131120464B
:10267C000091CDE901E56E49FFF71AFFA1E706F0DD
:10268C000803EBB16B4B204653F82A206A49FFF73D
:10269C000FFF0546B8F1000F05D0424620466149B0
:1026AC00FFF706FF0544BBF1000FAAD05A4620469F
:1026BC006249FFF7FDFE0544A3E74FF0000BE1E78D
:1026CC0006F00805E6E745469BE7BBF1010F069BC4
:1026DC0006D1DBB9049B002B00F0888000251BE0A1
:1026EC00002BF7D0564812E056482246069B564916
:1026FC0005F0BCFE00280CDA544940F2A723424AEC
:10270C00424805F023FF40F2A7213DE74D485546CE
:10271C00EBE7049B002B65D0DFF83481DFF83491B4
:10272C00049F3146102F204628BF10274FF0000B76
:10273C00FFF7D0FE5D4542DC059B494620461A78E2
:10274C00FFF7B6FE4FF0010B1BF0070F03D141460C
:10275C002046FFF7ADFE5F4538D9059B494620461C
:10276C0013F80B20FFF7A4FE0BF1010BBBF1100FBC
:10277C00EAD14FF0000B20463749FFF799FE5A4635
:10278C00059B20469A5CA2F120015F2928BF2E22CE
:10279C003249FFF78DFE0BF1010BBBF1100F1AD074
:1027AC001BF0070F03D141462046FFF781FE5F4522
:1027BC005A46E5D841462046FFF77AFEEBE74146FC
:1027CC002046FFF775FE0BF1010BB3E720462449B9
:1027DC00FFF76EFEC8E7059B3B440593049BDB1B90
:1027EC0004939DD1BAF1000F7FF413AF204609B0CA
:1027FC00BDE8F04F06F0DCB82046084A0849FFF760
:10280C0057FE09E7A8A5000044A50000589E00004B
:10281C00B4A50000B8A500007C9B0000A3A5000097
:10282C00989E0000DDA50000C4070020C007002012
:10283C00C1A50000909B0000E1A50000E7A50000E9
:10284C00D7890000FD24000035380000ECA50000FD
:10285C00FDA50000F5A50000FFA5000001A60000E5
:10286C00FBA5000042F20F7373B58B4228BF0B46D9
:10287C0005680446052168460D4A05F03DFB0646F1
:10288C00636828460B225B680A4906F083F8636884
:10289C003246694628465B6806F07CF863681B2262
:1028AC0028465B68044906F075F802B070BD00BF9D
:1028BC00CCA7000020A6000004A6000000210123E4
:1028CC00064A904206D8064A01B901231360054B0B
:1028DC0018607047012140085B00F2E740420F008E
:1028EC00C0070020C4070020F8B50D460446064F6B
:1028FC004618B44201D12846F8BD14F8011BBB6838
:10290C0001485B689847F4E72892000010B54368CB
:10291C001C68094806F00DFB48B90849084899237A
:10292C00084A05F013FE9921064805F006FE2368B7
:10293C005B685C6010BD00BF289200008AA6000096
:10294C00589E00004CA60000014B0360002070470D
:10295C00D89B000008B5044805F0E2FDBDE808402E
:10296C00024805F0DDBD00BFBEA60000F3A60000C6
:10297C002DE9F04706460C4600AF002936D0D1E9C8
:10298C000012E9468AB06D46A3684FF0050AA846C6
:10299C001F48C5E90723C5E9050148F810AF002316
:1029AC0042464FF421511B48FFF770FCD4E9031247
:1029BC00CD466369AD461848C5E90723C5E905014D
:1029CC00C5F810A0002342464FF421511148FFF7DF
:1029DC005DFCCD46E3690121104A0E4805F0D0FF9D
:1029EC00A36901210E4A0B4805F0CAFF012E07D13D
:1029FC00EFF305830B4A31460648103B05F0C0FF48
:102A0C002146304603F0E0FABD46BDE8F08700BF32
:102A1C0021A70000F49A000050A700007FA7000037
:102A2C008EA70000BCA7000030BFFFF7FDBF00BFA2
:102A3C002DE9F04105460B4EDFF82C80324606EBB3
:102A4C000807CC1B2046094906F00FFBA01942468B
:102A5C000021083C06F016FB2C6707F10800BDE8C6
:102A6C00F08100BF00000000040000001C9B00006F
:102A7C00074A936893F90E10002907DB52699342B9
:102A8C001FBF044A536843F080535360704700BF24
:102A9C00CC08002000ED00E070B5344C06460D4625
:102AAC003348344906F012F8A36AD9064DD530489C
:102ABC00314906F00BF81120A36A1A0704D52C48EB
:102ACC002E4906F003F81220284CA36A9B0712D556
:102ADC002B49274805F0FAFF636BA26A110609D54A
:102AEC000121284A224805F04BFF1EB1A36A23F0AE
:102AFC008003A36213201D4CA36ADA0704D51C487B
:102B0C00214905F0E3FF1420A36A9B0604D518485D
:102B1C001E4905F0DBFF1520144B9A6AD60602D429
:102B2C009A6A940713D59B6AD90610D5184940F2B6
:102B3C006313184A184805F009FD184805F006FDFE
:102B4C0040F26311134805F0F8FC1020B4E7074B72
:102B5C009A6A920642BF5A6A22F400525A629A6AE0
:102B6C0042F0FF029A6200232B7070BD00ED00E072
:102B7C00F49A0000CFA70000E5A7000018A80000F9
:102B8C002BA8000043A8000059A8000078A800005A
:102B9C00D9A80000A7A80000589E000023A9000097
:102BAC0010B5244C2449254805F090FFA36A9901DF
:102BBC003ED52248224905F089FF1E20A36ADA017E
:102BCC0004D51E481F4905F081FF1F20194CA36A2C
:102BDC00DB0204D519481C4905F078FF0220A36AD2
:102BEC001C0304D51548194905F070FF2120114C20
:102BFC00A36A590304D51148154905F067FF222033
:102C0C00A36A9A0304D50D48124905F05FFF2320EF
:102C1C00084CA36ADB0304D508480F4905F056FF9E
:102C2C002420A36A6FEA03436FEA1343A36210BD27
:102C3C001D20C3E700ED00E087A90000F49A000016
:102C4C009FA90000B2A90000CCA90000F6A90000C1
:102C5C0014AA000039AA000053AA000070B5294C30
:102C6C0006460D462848294905F030FFA36AD904C9
:102C7C003CD52548264905F029FF1720A36A1A05DB
:102C8C0004D52148234905F021FF18201D4CA36AC7
:102C9C009B0512D51C48204905F018FFA36BA26AAE
:102CAC00100409D501211D4A174805F069FE1EB113
:102CBC00A36A23F40043A3621920124CA36A59059A
:102CCC0004D51148164905F001FF1A20A36ADA054C
:102CDC000ED50D48134905F0F9FE1B20094A936ADD
:102CEC0043F47F43936200232B7070BD1620C5E71D
:102CFC00A36A9B04F2D504480B4905F0E7FE1C209F
:102D0C00ECE700BF00ED00E0F49A00007EAA0000A2
:102D1C0094AA000018A80000A5AA0000BEAA0000F2
:102D2C00D3AA0000EEAA000078A80000F0B58BB082
:102D3C00784B04465868002600AFC0F3080386F3AE
:102D4C001188BFF36F8F02F07F45B5F17F4F07D12C
:102D5C0002F00C05082D12D16F49704805F0B6FE33
:102D6C006F494FF48B636F4A6F4805F0EFFB6F4868
:102D7C0005F0ECFB4FF48B616A4805F0DEFB1507A0
:102D8C004CBF0C460126002CEAD00022FA71DA1E48
:102D9C00092A00F29D80DFE802F0059396769B9B52
:102DAC009B9B9B9962495D4805F090FE0023594D11
:102DBC00FB71EB6A9A0705D55E49584805F086FE0B
:102DCC00002329E0EB6A002B01DA5B49F5E7EB6A9B
:102DDC005B0068D55949514805F078FE6B69A269CA
:102DEC0043F480736B61BFF34F8FBFF36F8F6B69CD
:102DFC0032F8022C23F480736B61BFF34F8FBFF357
:102E0C006F8F4DF602739A4227D1236801214C4AE9
:102E1C00424805F0B5FD2368FA79DAB907F10805DF
:102E2C0004F1200C2A4620686168083403C264450A
:102E3C001546F7D17A6A002E66D0C2F3080121B983
:102E4C006FEA52226FEA42227A62184607F10801B1
:102E5C00FFF78EFD2C37BD46F0BDAB6ADBB22BB154
:102E6C000120F91DFFF718FE0346D5E7AB6A13F4F2
:102E7C007F4F04D00120F91DFFF7F0FEF4E7AB6A99
:102E8C00B3F5803F02D3FFF78BFEEDE72D4940F2FF
:102E9C002A33244A244805F059FB2B4805F056FBED
:102EAC0040F22A3168E7274940F22E331D4A1E486A
:102EBC0005F04CFB254805F049FB40F22E315BE751
:102ECC000020F91DCEE70020F91DD5E7204974E755
:102EDC00204A6D4610F4F87F8AB01F4918BF11467E
:102EEC006A46103BD3614FF400731C4813841C4B8F
:102EFC00C2E9050142F8103F00234FF41151074875
:102F0C00FFF7C4F9AD465BE722F4FF7222F0010231
:102F1C009AE700BF00ED00E034AB0000F49A00002B
:102F2C005FAB0000A7A80000589E000072AB000029
:102F3C00B0AB0000C7AB0000E8AB0000F6AB000084
:102F4C0015AC000079B5000031AC000055AC0000A8
:102F5C0085AC00001BAB000006AB0000A9AC000068
:102F6C0004000001064B5A6942F010025A615A697A
:102F7C0042F480625A615A6922F008025A61704721
:102F8C0000ED00E0EFF30880EFF3098101B5724624
:102F9C00FFF7CCFE01BD00BF002080F31488BFF307
:102FAC006F8F002080F30A8880F30B8801F082FB7E
:102FBC0000200E490860BFF34F8F0D4880F308883E
:102FCC0000F02CF8202080F311880A484FF400619F
:102FDC00401880F30988EFF314800221084380F332
:102FEC001488BFF36F8F00F00BF9000094ED00E034
:102FFC005816002018090020002318460649D1F85D
:10300C009020C2F30722934200DB7047C1F898303E
:10301C00C1F8A0000133F6E700ED00E010B572B680
:10302C00002484F31388FFF7E7FF23464FF0FF30AB
:10303C000C4A03F120010133102B42F82100F8D186
:10304C0000234FF0FF30074A03F160010133102BCE
:10305C0042F82100F8D162B6BFF34F8FBFF36F8FE8
:10306C0010BD00BF00E100E0084B9B6883420BD110
:10307C00EFF3058343B1064B5A6842F080525A6015
:10308C005A6A22F400425A6204F02CBACC0800208E
:10309C0000ED00E06FF00A01084A9368996708494F
:1030AC0058674B6843F080534B60002383F31188BF
:1030BC00BFF36F8F9368986F704700BFCC080020E8
:1030CC0000ED00E0EFF31183202383F31288BFF3AC
:1030DC006F8F4FF00061084A53699360074A516043
:1030EC00196F074A116000215A6F596782F31188D2
:1030FC00BFF36F8F704700BFCC08002000ED00E0DD
:10310C00EC0700200E498A684FF030001044EFF3B2
:10311C00098C80E8F01F74467046FFF7D3FFA64673
:10312C0007498A6802F1300090E8F01F8CF3098897
:10313C0002F1000004B505F0D1FCBDE80440704775
:10314C00CC0800201EF0040F0CBFEFF30880EFF347
:10315C000980816911F8021C0229FFD001B505F024
:10316C00AAFC01BD00B2002807DB01234109034A78
:10317C0000F01F00834042F82130704700E100E06E
:10318C00054B420953F82220012300F01F0003FADB
:10319C0000F01040704700BF00E100E038B54B1C58
:1031AC00072B04460D460FD95823104A10491148D5
:1031BC0005F0CCF9294610480723224605F0C6F93C
:1031CC0058210A4805F0B9F900B20028ACBF00F14B
:1031DC0060400A4A4FEA4313DBB2ABBF00F56140D3
:1031EC0000F00F0080F80033135438BDBCAC000065
:1031FC00F3AC0000589E00000EAD000014ED00E092
:10320C000B4A08B50B4B22F07F029A60BFF34F8F2D
:10321C00BFF36F8FD3F8882022F47002C3F8882094
:10322C0002F0FAFF04F0D0FA00F04CF803F034F896
:10323C000000000000ED00E042F8203C009B0B4930
:10324C0042F81C3C019B21F0010142F8183C029B06
:10325C0042F8081C42F8143C4FF0807342F8043CCE
:10326C000023203A02654367704700BF6D120000CF
:10327C0000B50D4B15469860026F0C4B0E461A604C
:10328C00036E83F30B882C4686F309884FF00000FD
:10329C00074B984720464FF000014FF000024FF0CB
:1032AC000003044C204700BFCC080020EC07002092
:1032BC00F18A00006D1200001022014B1A61704758
:1032CC0000ED00E00023202040F20F1210B5044C5A
:1032DC00E1180133934281F80003F9D110BD00BF0E
:1032EC0000E100E008B5EFF30583064A103B02EB62
:1032FC00C30152F8330049688847BDE80840FFF71E
:10330C00B7BB00BF3C9200001FB5094C094A2346CD
:10331C000121094800F012F900230393074B012106
:10332C00E41A01A80193029400F02CF904B010BD2A
:10333C0000F0022000000020D89B0000C0010020FB
:10334C0010B50C7A0B6804F01F0223F01F031A430C
:10335C00CB68640923F01F03054943EA440343F097
:10336C000103C1F89800C1F89C20C1F8A03010BD31
:10337C0000ED00E010B50A4BD3F89030C3F30723EF
:10338C00013B984208D901210346064A064805F03C
:10339C00F7FA6FF0150010BDFFF7D2FFFBE700BF87
:1033AC0000ED00E052AD0000EC9A00002DE9F04F6A
:1033BC008946144606464FF00008514D85B0C84565
:1033CC0027DAD6F804A0BAF1000F44D0BAF11F0FD7
:1033DC0017D91AF01F0F14D1D6F800B01BF01F0F1D
:1033EC000FD1584605F0A1FB07460AEB0B0001383C
:1033FC0005F09BFB874210D06FF01507414A3B4606
:10340C0001E04346404A0121404805F0B9FA6FF00B
:10341C001504204605B0BDE8F08F17F1160FEDD05E
:10342C00BC42EBDDC5F89870D5F89C10C5F89870C7
:10343C00D5F8A03021F01F0143F01F0BD6E9003264
:10344C001A44994202F1FF3A1DD1D34507D13146B6
:10345C00F8B205F073FB08F101080C36AFE7314602
:10346C00C5F89870D5F89C3022F01F0203F01F03AA
:10347C001343C5F89C30E0B205F060FB10F1160F59
:10348C00C5D0441CE7E7C5F89870D5F8A020013BDF
:10349C0023F01F0302F01F021343D3453146E0B261
:1034AC00C5F8A030E8D005F049FB10F1160FAED0EE
:1034BC00C5F89870D5F89C209DF808300BF1FF3BAF
:1034CC0062F304038DF80830D5F8A0309DF808207D
:1034DC005B0863F347128DF80820D6E900321344D9
:1034EC00009323F01F035B44A3EB0A03013023F08A
:1034FC001F036946C0B20393FFF73CFFBEE700BF52
:10350C0000ED00E09BAD000078AD0000EC9A0000EF
:10351C000522044BC3F89420BFF34F8FBFF36F8F7A
:10352C00704700BF00ED00E0BFF35F8F0022024B3D
:10353C00C3F89420704700BF00ED00E038B50C4D87
:10354C000C462A78FFF732FF287016300FD14FF453
:10355C00B473084A0849094804F0F8FF21460848A2
:10356C0004F0F4FF4FF4B471024804F0E6FF38BDE8
:10357C000F090020BEAD000079B50000589E000078
:10358C00EDAD00002DE9F74F314E894605464FF061
:10359C000008B3462F4FC84502DB03B0BDE8F08FDF
:1035AC00D5F804A0BAF1000F4CD029680846019157
:1035BC0005F0BBFA019904460AEB0100013805F04D
:1035CC00B4FA84424FF01402234B15D002FB08F3DB
:1035DC006FF015024BF803204FF4BC731F4A2049BF
:1035EC00204804F0B3FF49461F4804F0AFFF4FF4E6
:1035FC00BC711A4804F0A1FF14F1160F3460EBD023
:10360C001978A142E8DD02FB08B0C7F89840C7F86A
:10361C009840D7F89C4000F10801007B64F304004B
:10362C000871D7F8A0000C79400860F347140C71AE
:10363C00D7F89C1021F01F017160D7F8A01021F071
:10364C001F01316108F1010814360C35A3E700BFE6
:10365C00F007002000ED00E00F090020BEAD0000D7
:10366C0079B50000589E000019AE00002DE9F0411C
:10367C00574C584ED4F890303568C3F307239D420D
:10368C0086B013D940F29F13534A5449544804F05E
:10369C005DFFD4F8902029465248C2F3072204F06B
:1036AC0055FF40F29F114C4804F047FF0020FFF7F4
:1036BC003BFF4D4BC4F8C03085421AD14B4C01A88E
:1036CC002570FFF741F9002506464FF04108484F99
:1036DC00AE4215D1002023783D49D1F89020C2F399
:1036EC00072293426DDB0020FFF712FF06B0BDE806
:1036FC00F081716801EB0011FFF722FE0130DBE76E
:10370C00019A290102EB0513D3F80CC00CEA07004F
:10371C00B0F5001F27D0B0F5800F40D0B0F5801F5A
:10372C004DD1586852589B68CDE902022122013BC9
:10373C0020F01F010B4423F01F038DF8102005937C
:10374C00207802A9FFF716FE002835DA234940F24B
:10375C00C913214A224804F0F9FE264804F0F6FE6B
:10376C0040F2C9119FE758689B685258013B20F002
:10377C001F010B4423F01F031CF0010FCDE90202C3
:10378C008DF810800593DBD01B496D23124A144829
:10379C0004F0DCFE194804F0D9FE6D2183E758686B
:1037AC009B685258013B20F01F010B44CDE90202EB
:1037BC0023F01F030622C0E7237801332370013561
:1037CC0086E7C1F89830C1F8A000013385E700BF47
:1037DC0000ED00E0E49B0000BEAD000079B50000F8
:1037EC00589E000048AE0000AAFF44000F090020BC
:1037FC000000F0FFD1AE00007CAE0000A2AE0000D5
:10380C0008B5024B1B689847002008BD040800202F
:10381C00034B044A1860937843F00203937070478B
:10382C000408002010000020F0B587B007460E46B3
:10383C0014460021102268461D4605F023FC022385
:10384C008DF80230054B2A4621466846CDE90476B0
:10385C00019304F07DFB07B0F0BD00BF7B8B000033
:10386C0008B50649064821F00701C1F1005202F5DE
:10387C003C32FDF715F8002008BD00BF5F16002094
:10388C000808002008B500F0FFFE00F05DF841F6D6
:10389C00F8732248D0F82416C1F3080203EA513316
:1038AC00132182F48072883201FB02331C4A590ABC
:1038BC00DB0548BF0131C2F80419D0F820364FF4AB
:1038CC007A60C3F30801C3F30943434342F21C502B
:1038DC0081F4807101F2172100FB01334FF47A70EF
:1038EC001B0AB3FBF0F100FB1133B3F5FA7F28BFD1
:1038FC0001310A4BC2F81C17D3F840331C2B08D1EA
:10390C003423C2F82436D2F83C3623F40023C2F810
:10391C003C360123C2F80036002008BD00C0FF0071
:10392C000000125048B1054B054A1B68B3FBF2F37B
:10393C005843044B43F00103184770472C000020F8
:10394C0040420F00409B00000122024BC3F80424AC
:10395C00704700BF002008E037B540230C460A49E9
:10396C000093411A491105462346084A084805F0B8
:10397C0009F9011E05DA2846234603B0BDE830409C
:10398C00184703B030BD00BF28080020F98B000099
:10399C00D891000010B5EFF31184202383F3128823
:1039AC00BFF36F8F084A136823F00201DB07116025
:1039BC0005D4012001F040F80122044BDA6084F3B5
:1039CC001188BFF36F8F10BD8008002000E01050ED
:1039DC00C9B2012908B509D9084909488223094AFD
:1039EC0004F0B4FD8221074804F0A7FD0C22036902
:1039FC0001FB0233986C00F0070008BD56AF0000C5
:103A0C00589E000019AF000070B5C9B201290369B6
:103A1C000BD91849184840F26B13184A04F096FD5C
:103A2C0040F26B11154804F088FDEFF3118520244A
:103A3C0084F31288BFF36F8F0C2606FB0134A46C41
:103A4C0014F0C00408D0A24206D085F31188BFF34D
:103A5C006F8F4FF0FF3070BD012271430B449A649D
:103A6C0085F31188BFF36F8F43680B445B689847ED
:103A7C000020F0E756AF0000589E000019AF000080
:103A8C0070B50D4606490446411A491140220548B5
:103A9C00FFF7BAFF2B4601462046BDE87040184799
:103AAC0028080020D891000070B50022012104469E
:103ABC0040F20510FFF772FB0F4800F00DFF0F4BA3
:103ACC00984215D100F018FF26690D49304604F0D4
:103ADC0088FE00280BDB0125B5642469084904F134
:103AEC00200004F07EFE002801DB0020656570BD1F
:103AFC006FF00400FBE700BF913B00000000AD0B32
:103B0C000C9C00001FB500220123CDE902236B465B
:103B1C00084ACDF800D0CDF804D005F060F80028A4
:103B2C0005DB43F609520023684602F09FFC05B002
:103B3C005DF804FB118C00000C22104B014602FBBB
:103B4C000033002030B4D3E910521864EFF3118025
:103B5C00202484F31288BFF36F8F9C6C04F0C00494
:103B6C0044F002049C6480F31188BFF36F8F1DB185
:103B7C002B4630BC0248184730BC70472808002040
:103B8C00D891000008B504281BD8DFE800F0030C1E
:103B9C00241A0E00104B986C10F007001BD1BDE8D6
:103BAC000840FFF7C9BF0120F9E70C494FF41F7318
:103BBC000B4A0C4804F0CAFC4FF41F71084804F07F
:103BCC00BCFC064940F28523054A064804F0BEFCBD
:103BDC0040F28521F2E708BD2808002079B50000E5
:103BEC0019AF0000589E000010B4EFF31182202191
:103BFC0081F31288BFF36F8F1748036843F00204F8
:103C0C0013F0010F0460154B08D182F31188BFF338
:103C1C006F8F0120986010BC00F098BED3F80C0494
:103C2C00C003F2D5EFF3118081F31288BFF36F8FCD
:103C3C000B498B6C03F0C00343F002038B6480F3DD
:103C4C001188BFF36F8F82F31188BFF36F8F002041
:103C5C0010BCFFF771BF00BF8008002000E01050BF
:103C6C00280800202DE9F041012206464049D1E800
:103C7C00EF3FC1E8E02F0028F9D1A3B93D493E48F8
:103C8C004B60CB608A60FDF7A5FF00280BDA3B493F
:103C9C0040F23E233A4A3B4804F058FC40F23E21A5
:103CAC00374804F04AFC5EB3731E012B56D8012E24
:103CBC0006D1354BD3F8503403F00303012B1FD03E
:103CCC0005F073F90546E8B9304B1B78D3B10422E3
:103CDC0007462D4BC3F808232B4CDFF8B480D4F8DF
:103CEC004C24D4F84C34D20315D503F00303012B28
:103CFC0001D0012E0FD165B387F31188BFF36F8FFD
:103D0C00BDE8F081EFF31187202383F31288BFF312
:103D1C006F8F0125E0E7BDB1384604F0F7FED4F80B
:103D2C00403413F0FF03DAD1D4F80821002AD6D09E
:103D3C00C4F80831D4F8083120220123C4F84034E7
:103D4C00C8F8A0212361CAE70021202003F08AFBD8
:103D5C00E5E704220C4BC3F80423D1E70D494FF4DB
:103D6C001473074A074804F0F1FB4FF4147197E7FA
:103D7C00240800201408002048080020ECA50000AE
:103D8C0019AF0000589E000000E0105012090020EE
:103D9C0000E100E079B5000008B5074805F0C9F866
:103DAC0038B10648FFF734FD0448FDF753FA0020FC
:103DBC0008BD6FF01200FBE728920000CD3D00001B
:103DCC000A2838B50446074D04D1AB680D212846A6
:103DDC005B689847AB6803485B68E1B2984720463C
:103DEC0038BD00BF2892000010B5036961B92049A5
:103DFC003E23204A204804F0A9FB204804F0A6FBEF
:103E0C003E211C4804F099FB486850B91C493F23DB
:103E1C00184A194804F09AFB1A4804F097FB3F2102
:103E2C00EFE75868F8B1884219D19C680868A1423C
:103E3C00586000D19860002008602AB15A680A6066
:103E4C009A68596002B99960002010E0814206D14D
:103E5C000868206098688142EDD19C60EBE70446CD
:103E6C0000680028F2D1002AE8D16FF0150010BDCF
:103E7C00DDAF0000A1AF0000589E0000E6AF0000CF
:103E8C00F5AF000007B0000038B545682B69E3B109
:103E9C001035284601F092FA0446B0B9014628467E
:103EAC0001F04CFA0B4B984211D1224628460A4994
:103EBC0001F006FA22460121DB20FFF76FF92246BA
:103ECC00012140F20D10FFF769F9002038BD6FF0A9
:103EDC000400FBE70000AD0BB941000008B5036816
:103EEC005F2B4FEA531107D80C4A03F01F0352F80B
:103EFC002120DA40D2070BD409490A484FF46C73DD
:103F0C00094A04F023FB4FF46C71074804F015FBCD
:103F1C000360064B53F8210008BD00BF589C0000FD
:103F2C0051B00000589E00001EB000004C9C0000D8
:103F3C00F0B5406801F01F04057B87B044EA4514D6
:103F4C000569002D5BD0B2F5001F00F1100506D1FC
:103F5C002146284604F0E7FF002007B0F0BD0027FB
:103F6C00B2F5800F01AE0197776033D1B3F1007FCA
:103F7C0014BF052304238DF804300023CDE904631A
:103F8C0003938368CB40D90716D4B2F1A07F13D129
:103F9C0068460094FFF7A2FF009B203350F82330B3
:103FAC00DB0709D46A462146284601F097F9174BDE
:103FBC0098421AD0CDF808D02146284603AA00F022
:103FCC00F5FF134B98421DD101222146284601F0E2
:103FDC001BFAC1E7B3F1C06F05D0B3F1007F14BF7A
:103FEC0001230223C7E70323C5E76946284601F0EE
:103FFC00FFF9074B9842DDD06FF00B00ADE76FF087
:10400C008500AAE76FF01500A7E700BF0400AD0B11
:10401C000000AD0B2DE9F043466840F20635337BCA
:10402C00D00601F01F0747EA431748BF032302EAF3
:10403C00050558BFC2F3401387B0B5F5837F14460E
:10404C008DF8033044D00FD8062D43D007D8B5B126
:10405C00022D14D06FF0150007B0BDE8F083B5F554
:10406C00807FF7D101250AE040F20222954233D03D
:10407C00B5F5407F32D0B5F5007FEBD10425012397
:10408C00220303FA01F12BD573685960336963BBC2
:10409C0003A80397FFF722FF039B00EB830084F434
:1040AC008033C3F30043C4F34044D0F8802044EA87
:1040BC0043049DF8033022F4706244EA830422F036
:1040CC000F0244EA05231343C0F880300020C3E7F5
:1040DC000925D4E70825D2E70625D0E70525CEE744
:1040EC00630344BF73689960D0E710363946304695
:1040FC000DF1020201F0F2F814F4403F804617D1A2
:10410C003946304604F00DFF244B9845DED130463D
:10411C009DF8021001F060F94045D7D020492148A4
:10412C00EC23214A04F012FAEC211F4804F005FAA2
:10413C004FF0000901AB3946304603AACDE90439EA
:10414C00CDE90199CDF80C9000F030FF134B98425B
:10415C0080D114F4003315D09DF8033084F48034EE
:10416C00C4F300448DF80E3039464B46304603AA52
:10417C008DF80C508DF80D4001F008F8074B984263
:10418C00C2D067E7CDE9043339460DF1030330465D
:10419C0003AA039300F00AFFF0E700BF0000AD0B89
:1041AC00A0B00000589E000074B000004209022A22
:1041BC00034670B503D0012A1FD002B370BD154E53
:1041CC00326951680029F9D0012503F01F030C68EE
:1041DC009D400029F2D08A682A4014D04B6883B9DC
:1041EC000D4961230D4A0E4804F0B0F90D4804F056
:1041FC00ADF96121094804F0A0F90B4EE0E70B4E34
:10420C00DEE7304698471CB1236821461C46E0E7A0
:10421C002346FAE714920000B4B00000A1AF0000EE
:10422C00589E000007B0000000920000EC910000C6
:10423C0008B503685F2B4FEA531107D80C4A03F0FB
:10424C001F0352F82120DA40D2070BD409490A483F
:10425C004FF46C73094A04F079F94FF46C71074808
:10426C0004F06BF90360064B53F8210008BD00BF46
:10427C00DC9C000051B00000589E00001EB00000F5
:10428C00D09C00002DE9F04F1546064640F2FF1970
:10429C00DFF838B185B000EB8108B04503D10020C0
:1042AC0005B0BDE8F08F3368C3F3C322082AC3F30B
:1042BC00080400F2848046491B0E4C4508BF4FF0A1
:1042CC00FF348F5C192B7DD8DFE803F00D1C4760A1
:1042DC004A50607C7C7C7C7C7C7C7C7C7C7C7C7C8C
:1042EC007C7C636D7073C5F80446631C3CD003A8DA
:1042FC000394FFF79DFF0122039B924602FA03F3FE
:10430C00436005E0C5F80C46621C2DD04FF0000A46
:10431C0051463368039403F40040002818BF002171
:10432C0003A818BF4FF0010A01930091FFF780FF1B
:10433C00039C019B00EB8400D0F88040C3F3412C1C
:10434C0000993B0243EA8C030B4304EA0B0423431E
:10435C0043EA4A03C0F8803006E0C5F81046C4E7CB
:10436C00601CC5F8004627D1043696E7611CC5F8D9
:10437C000446F9D04FF0010A03A80394FFF758FF45
:10438C000121039B01FA03F38360C2E7C5F80846D9
:10439C00BAE7C5F86045621C3368E5D0C3F3004347
:1043AC00002BE7D0A3E7C5F86445F4E7C5F86845EA
:1043BC00F1E7C5F86C45EEE74FF0000ADCE76FF06B
:1043CC0015006DE76FF085006AE700BFF0F0FCFFA9
:1043DC00E2B000002DE9F04104460D46476804F0B8
:1043EC00E4FDA0B9274B1B788BB14FF02008642655
:1043FC0063681B68D3F830318BBB012004F0B7FC29
:10440C00013EF5D10021202003F02CF8EFE720210C
:10441C00EFF311831A4681F31288BFF36F8F606834
:10442C000068D0F8300120B983F31188BFF36F8F87
:10443C00EEE73B6A00201D706368396A1B68C3F89D
:10444C003C170121C3F84017C3F83001D3F83001F1
:10445C00196582F31188BFF36F8FBDE8F081EFF31C
:10446C0011831A4688F31288BFF36F8F616809684D
:10447C00D1F830110029DCD183F31188BFF36F8F91
:10448C00C0E700BF1209002073B514461D466846EC
:10449C0001F012F9009BA342019BAB4114D30B4AD0
:1044AC00D2E90061A41B24F01F0365EB0100640931
:1044BC009B1941EB000144EAC060C2E9003102B033
:1044CC00BDE8704003F0F4BA02B070BD00060020E5
:1044DC0010B500220121E420FEF760FE002001F05F
:1044EC0043F9114B0446984208D101200F4901F0C1
:1044FC00F7F9A04205D00E4B984211D04FF0FF3087
:10450C0010BD67220B4B02201A60FFF7ABFB0A4A67
:10451C000020D2F8183723F44033C2F81837EFE7ED
:10452C006FF00B00ECE700BF0000AD0B2800002083
:10453C000200AD0BB008002000200E5037B5EFF391
:10454C001185202383F31288BFF36F8F184803F073
:10455C000FF968B98823174A1749184803F0F6FF72
:10456C001349174803F0F2FF8821124803F0E5FFC6
:10457C000F4803F021F9684601F09EF80C48009CA6
:10458C0003F004F968B940F231130A4A0D490B489B
:10459C0003F0DCFF06490C4803F0D8FF40F2311160
:1045AC00E3E785F31188BFF36F8F204603B030BD6E
:1045BC00B408002003A2000030A20000589E0000A6
:1045CC0045A200005BA2000072A2000007B568467D
:1045DC0001F072F80098074AD2E90032C01A019B28
:1045EC004FEA501063EB020340EAC36003B05DF87E
:1045FC0004FB00BF000600207FB5431C18BF20EA57
:10460C00E07502A808BF6FF0004501F055F802995B
:10461C000E4B2020D3E900268C1A039961EB06037C
:10462C002146C5FB0013402973F1000436BF014637
:10463C0021F01F01002352184FF0010146EB030338
:10464C000091034801F0E0F904B070BD00060020B1
:10465C002000002003689A070CD50368DB070DD5F2
:10466C000922074BC3F80C250F22C3F8042501229D
:10467C001A60FEE7034B0360EF3B0360704700BF1B
:10468C0000801050F000FA50064BD3F80438012B80
:10469C0005D0032B02D1044B044A1A607047024B1D
:1046AC00034AFAE7000012502C0000200090D003BF
:1046BC000020A107012208B5284B2948C3F800287F
:1046CC00FFF7C8FF0830FFF7C5FF0830FFF7C2FF40
:1046DC000830FFF7BFFF00F5F470FFF7BBFF214A6E
:1046EC00D2F88C3043F44063C2F88C300022D300F3
:1046FC0003F57F0303F54043D3F8001401310AD0CE
:10470C00D3F8001439B1D3F800140132D3F80434BF
:10471C00402A0B60EBD1114BD3F84024CAB1124B99
:10472C00D3F840231C2A08D1D3F834230F4B9A42D8
:10473C009EBF0A4B0E4AC3F840260A4AD2F88C3068
:10474C0043F44063C2F88C3000220A4BC3F8A02516
:10475C0008BDC822C3F84024E1E700BF0000125096
:10476C0000C50D5000ED00E000C0FF00001D0A1850
:10477C0040E0A91E00B0045030B50468ACB1B4FAE6
:10478C0084F30122C3F11F03DBB29A4024EA020234
:10479C00D0E8EF5FA54204D1C0E8EC2FBCF1000FCC
:1047AC00F6D1EAD102480B7030BD0248FCE700BFDD
:1047BC000000AD0B0200AD0B10B50368CB40DB075E
:1047CC0010D401238B40026843EA0201D0E8EF4F7A
:1047DC00944204D1C0E8EC1FBCF1000FF6D1F2D129
:1047EC00014810BD0148FCE70000AD0B0400AD0B07
:1047FC00F7B5344B044658B1012827D03249334819
:10480C00DC23334A03F0A2FEDC21314803F095FE91
:10481C000422C3F80823012206465A61C3F8080192
:10482C00D3F80831002342F21075264F8DF807306B
:10483C00ECB1012C30D0244924484FF47473254A30
:10484C0003F084FE4FF474712248DFE70022C3F8B2
:10485C0008035860C3F80021D3F800310DF10706A6
:10486C00E0E783B1012004F082FA013D0BD0D7F8C8
:10487C004C3403F48033002EF3D0D7F84C2402F0E0
:10488C0003023270A3B903B0F0BD002BFBD00120A2
:10489C0004F06DFA013DF6D0D7F80C3403F48033F4
:1048AC00002EF2D0002B0CBF012300233370EAD072
:1048BC009DF80730002BE6D1012004F058FA013D99
:1048CC00B6D1E0E700E0105079B50000589E00002A
:1048DC00A3B20000E0B20000044B1A7922B9012205
:1048EC0018601A710248704702487047B8080020D7
:1048FC000000AD0B0C00AD0B08B50F4B1A795AB973
:10490C000E490F484FF498730E4A03F01FFE4FF4F4
:10491C0098710C4803F011FE1B6843B140F205106E
:10492C00FEF72EFC18B940F20510FEF71BFC002216
:10493C00054BC3F8402408BDB808002014B3000090
:10494C00589E0000A3B2000000E0105038B5344C63
:10495C0023795BB9334940F27F13334A334803F070
:10496C00F5FD40F27F11304803F0E7FD58B1012806
:10497C004BD02F4940F2C3132B4A2C4803F0E6FDD1
:10498C0040F2C311EFE72B4BD3F84C14D3F84C2463
:10499C00C80322D502F00303012B04D013B100206D
:1049AC00FFF726FF0023234A0420C2F840341022CC
:1049BC004FF48473002103F1A04303F587131960AE
:1049CC001D68012502F1A04202F5871215602268CC
:1049DC00FAB1184BC3F804030CE0D3F84824D10700
:1049EC00E0D5D3F850249207D9D422681AB1042206
:1049FC00C3F8042338BDD3F80821002AFBD00022C9
:104A0C00C3F80821D3F80831F4E700224FF480737F
:104A1C00D0E71A68002AFCD019601B68EAE700BFCF
:104A2C00B808002014B30000A3B20000589E000088
:104A3C0079B5000000E0105008B5094B1B795BB943
:104A4C000849094840F2DD13084A03F07FFD40F2A3
:104A5C00DD11064803F071FDBDE80840FFF7C8BE44
:104A6C00B808002014B30000589E0000A3B2000048
:104A7C0010B51E4BD3F8002152B10020C3F8000131
:104A8C00D3F800210122C3F80823194B1B6898475F
:104A9C00164BD3F8082172B10022C3F80821D3F8C1
:104AAC000821D3F84C24D3F84C24920714D10122BA
:104ABC00C3F840241A610D4BD3F80421A2B1002293
:104ACC000220C3F80421D3F80421C3F80803084BCF
:104ADC00BDE810401B6818470422C3F80823044B98
:104AEC0001201B689847E6E710BD00BF00E010509E
:104AFC00B80800205F2898BF074B4FEA50129FBFA1
:104B0C0053F8223000F01F0023FA00F000F00100EF
:104B1C0088BF0020704700BF4C9D0000034A43092A
:104B2C00D35C00F01F001844C0B2704724B40000DE
:104B3C0070B505460846FFF7F1FF36212A791E4B62
:104B4C0001FB0202083233F81200C10526D56C2491
:104B5C000026C0F3432120F4F85023F812002A79E0
:104B6C0004FB02340E3434F8020F10F4807F03D0AF
:104B7C00C0F34320814211D00136232EF3D16C2097
:104B8C000024424302EBC1029C502A7900FB023004
:104B9C006030FFF711FE094B984200D170BD0849F7
:104BAC0008484FF4DC73084A03F0D0FC4FF4DC7176
:104BBC00054803F0C2FC00BF300000200000AD0B24
:104BCC00A0B00000589E000071B3000010B5016841
:104BDC0004460846FFF78EFF58B910494FF46C7322
:104BEC000F4A104803F0B2FC4FF46C710C4803F000
:104BFC00A4FC01F01F035F2923604FEA511209D96D
:104C0C00094940F2B933064A064803F09FFC40F2CA
:104C1C00B931EBE7054B53F8220010BD51B0000041
:104C2C001EB00000589E000079B50000409D0000A9
:104C3C00072808B50BD90849084840F2AA33084A96
:104C4C0003F084FC40F2AA31054803F076FC8000A6
:104C5C0000F5807008BD00BF67B30000589E0000CF
:104C6C0032B30000F0B50646002487B0114F019115
:104C7C0017F8012B06AB03EBD20313F8143C02F02C
:104C8C000702D34013F0010306D10134032CEFD1FA
:104C9C000023184607B0F0BD074A03AD07CA85E8E4
:104CAC00070055F824100A6A46F824200A62002AE4
:104CBC00EBD0EEE734B40000209B000010B50446A6
:104CCC000846FFF72BFF362303FB0400024B08308A
:104CDC0033F81000400B10BD3000002010B5044616
:104CEC000846FFF71BFF362303FB0400034B083079
:104CFC0033F81000C0F3400010BD00BF300000209E
:104D0C0010B504460846FFF709FF362303FB0400E1
:104D1C00044B083033F8100010F01C0018BF0120B1
:104D2C0010BD00BF3000002010B504460846FFF748
:104D3C00F5FE362303FB0400034B083033F8100058
:104D4C00C0F3401010BD00BF3000002010B5044669
:104D5C000846FFF7E3FE362303FB0400034B083041
:104D6C0033F8100000F0010010BD00BF300000202F
:104D7C002DE9F04F0D46D0F8141387B0C9B241F4A9
:104D8C000031AA6D009004F07BF8810306462ED505
:104D9C000023696E03A8CDE903330593FFF762FF87
:104DAC00DFF868A1DFF868B10DF10C091AF8013BC6
:104DBC0005EBD30292F8642003F0070322FA03F305
:104DCC00DA076AD4534B09F1040953450BF1010B73
:104DDC00ECD14FF40031AA6D009804F051F8696ED3
:104DEC0003A8FFF73FFF0028DAD126F40036012490
:104DFC00002E73D107B0BDE8F08F91FAA1F1B1FA92
:104E0C0081F19BF8004041EA44142046FFF786FEEE
:104E1C00083035F81080C8084FEA98030193012335
:104E2C0019F8002001F0070103FA01F122EA01024E
:104E3C0009F8002002A80294FFF7C8FE029A019B11
:104E4C00203250F82220C8F382075B07B846C2F321
:104E5C00014227D521462846D7B2424603F089FFA6
:104E6C0002A80294FFF7B2FE029B203350F82330C5
:104E7C00C3F301439F4207D10021204603F0E5FF15
:104E8C003946204603F0E1FF02A80294FFF79EFE8C
:104E9C000122029B02FA03F30362D9F800100029E5
:104EAC00ABD18FE7022A0DD10321204603F0CDFFB1
:104EBC0007F00503012BE7D142462146284603F0B3
:104ECC0058FFE1E702212046019203F0BEFF032FB9
:104EDC00F2D0019A032AD7D1022FECE796FAA6F367
:104EEC00B3FA83F304FA03F226EA0206009A284680
:104EFC0002EB8303D3F81015D3F81025C1F3081176
:104F0C00C2F3014203F035FF72E700BF34B4000076
:104F1C0034B4000037B40000F7B5044600790D46F0
:104F2C00FFF714FF002836D0204603F0D5FF277971
:104F3C0029463846FFF7F8FE58B13846FFF7BEFE53
:104F4C000022266800B206EB8003C3F81025C3F8D4
:104F5C00102529462046FFF7EBFD2846FFF7DEFD1E
:104F6C0036222379019502FB030000220B4B0830FB
:104F7C0023F8102001A8FFF729FE019B00EB83000A
:104F8C00D0F88020064B134043F00203C0F8803069
:104F9C00044803B0F0BD0448FBE700BF300000201C
:104FAC00F0F0FCFF0000AD0B0400AD0B2DE9FF474A
:104FBC00174604460846FFF7B1FD3E68884605468D
:104FCC003EB3204603F050FF98BB3346CDE90000BA
:104FDC008DF80E008DF80F000DF10F0240460DF10B
:104FEC000E0103F0E5FE36202379654A00FB0353DE
:104FFC00083332F8131021F0020122F81310237930
:10500C0000FB0353083332F8131041F0010122F86E
:10501C0013107B68002B45D026794146304693F817
:10502C000090D3F804A0FFF759FE20B1BAF1000F9D
:10503C0022D0544839E04FF0360C0CFB0656504940
:10504C00083631F8163023F4604323F0200321F89E
:10505C001630BAF1000F0FD0B9F1030FE9D87B6805
:10506C0026685B68187806EB8006B9F1000F1FD133
:10507C00C6F81095C6F8109536202379404A00FBE7
:10508C000353083332F8131021F01C0122F81310CB
:10509C00237900FB0353083332F8131041EA8901DA
:1050AC0022F81310BB6863BB374804B0BDE8F08727
:1050BC00D6F8102522F00302C6F81025226802EB60
:1050CC008003D3F8102522F4473222F47C72C3F803
:1050DC00102541F6F072D3F8106502EA081242EA84
:1050EC0009423243C3F8102523790CFB03530833D0
:1050FC0031F8132042EA403242F0200221F813200A
:10510C00BAE74146D3E900972046FFF711FDB9F104
:10511C00000FC9D06C232079194E4343F218F35871
:10512C00994504D153689F4201D100210CE06C23B6
:10513C0003FB00600DF10F016030FFF71DFB124BFC
:10514C009842B2D19DF80F106C222379534303EB94
:10515C00C10346F8039023795343362203EBC10372
:10516C0033445F60237902FB0353083336F8132072
:10517C0042EA412242F4807226F8132094E700BFE1
:10518C00300000200400AD0B0000AD0B2DE9F04306
:10519C00054685B0084690461F46FFF7BFFC0E46F5
:1051AC000446B8F1000F2DD095F804904846FFF74F
:1051BC0095FD18B94846FFF7B7FD50BB3146484638
:1051CC00FFF79EFD18B198F80130012B21D0012377
:1051DC008DF80F30002308F10102CDE900830DF1A9
:1051EC000F0108F10203304603F0E2FD36222B7961
:1051FC002F4902FB0343083331F8132042F003021A
:10520C0021F81320002F50D031462879FFF766FD86
:10521C0018B9284805B0BDE8F08300214FF0360ED0
:10522C0038782B68820003EB8003C3F81015C3F8A1
:10523C0010152B791E490EFB0343083331F813C0AC
:10524C002CF4604C2CF0200C21F813C097F801C002
:10525C00BCF1000F29D02B68BF781A44D2F8108506
:10526C00154B4FEA0C4C08EA0303C2F8103541F613
:10527C00F0730CF4403C03EA06133F05D2F810859A
:10528C0043EA0C0307F480173B4343EA0803C2F8D4
:10529C0010352B790EFB0344083431F8143043EAF3
:1052AC00403343F0200321F814300448B2E700BF28
:1052BC00300000200400AD0B0FE0ECFF0000AD0B44
:1052CC0030B56C250479044B05FB0434A1600179DD
:1052DC0005FB0133DA6030BD3000002070B5144698
:1052EC005AB91049104840F20D33104A03F02EF908
:1052FC0040F20D310D4803F020F906793046FFF7E6
:10530C0013FD68B10846FFF709FC362303FB0600C2
:10531C00074B083033F8103006485B0B237070BD18
:10532C000548FCE70FB40000589E000071B3000064
:10533C00300000200000AD0B0400AD0B2DE9F8434C
:10534C00054607796C201A4E00FB076898F86840F0
:10535C0064BB4046A14646222146103003F092FE23
:10536C002D68D8F85880A04513D10023C5F3083018
:10537C00C5F844310130D5F84431FDF7F3FE6C2308
:10538C0003FB076601230B4886F868303366BDE8DB
:10539C00F883E0B2FFF74CFCA0F580739B08112B4F
:1053AC0004BF45F800902B580134DCE70248EEE7C7
:1053BC00300000200000AD0B0C00AD0B6C2102790D
:1053CC00044B01FB023393F86800003818BF01202E
:1053DC00704700BF300000206C235C22007913FB67
:1053EC00002302481844FFF7E7B900BF3000002043
:1053FC006C235C22007913FB002302481844FFF74E
:10540C00BBB900BF300000202DE9F3410446007900
:10541C000D461746FFF774FC58B9354940F2FA337C
:10542C00344A354803F092F840F2FA31314803F02F
:10543C0084F82368D3F8142392035CBF4FF4003232
:10544C00C3F8142326793046FFF76EFC08B33046B8
:10545C00FFF744FC8046E0B93046FFF72FFC0546C9
:10546C00FFF7E6FB26682AB246F80080335823681B
:10547C0003EB8203D3F8102542F00102C3F8102588
:10548C0027B101232268AB40C2F8143302B0BDE847
:10549C00F0814FB9194940F20E43164A164803F0F1
:1054AC0055F840F20E41C1E72846FFF737FB36238B
:1054BC0003FB0600124B083033F81030C3F38203A1
:1054CC00042B11D0052B11D001A80195FFF77EFB01
:1054DC00019BC168D94001F001010231284602B09C
:1054EC00BDE8F04103F0B1BC0321F7E70221F5E779
:1054FC00EEB3000071B30000589E000019B4000018
:10550C003000002001490248FFF732BC3000002077
:10551C0000A00D5001490248FFF72ABC9C00002056
:10552C0000C0105008B5154B027AD3F8101521F0B5
:10553C0001010A43C3F810250268B2F5803F0BD372
:10554C000F4940F2ED630F4A0F4802F0FFFF40F2A3
:10555C00ED610C4802F0F1FFC3F8A4264268FF2A63
:10556C0009D90A494FF4DF63064A074802F0EEFFF7
:10557C004FF4DF61EDE7C3F8AC2608BD00200E50F8
:10558C006AB4000037B40000589E000092B40000CA
:10559C000B2808B50BD90A490A4840F28C630A4A11
:1055AC0002F0D4FF40F28C61074802F0C6FF0023E2
:1055BC00000100F1A04000F56220C0F82C3508BDB8
:1055CC00B8B40000589E000037B4000070B5054612
:1055DC0048B917491748D623174A02F0B7FFD62106
:1055EC00154802F0AAFF002467220126007A92FADD
:1055FC00A2F3B3FA83F3834204F1010112D1FFF752
:10560C00C7FF0C210D4BE4B201FB043401212A68C5
:10561C00E2606A6822612A7A914022759A680A438C
:10562C009A6070BD06FA03F30C4622EA0302DEE729
:10563C0008B50000589E0000CCB400000801002002
:10564C000B2808B50BD90B490B4840F276430B4A93
:10565C0002F07CFF40F27641084802F06EFF000138
:10566C0000F1A04000F56220D0F82415D0F82005F8
:10567C0008BD00BFB8B40000589E000037B400004D
:10568C00012303FA00F010F0670F0AD0064B5B6899
:10569C00DB4303F067030342044B054818BF18466D
:1056AC0070470448704700BF080100200000AD0B94
:1056BC000400AD0B0800AD0B2DE9F048214B1B7815
:1056CC00012B0BD0204940F21F13204A204802F036
:1056DC003DFF40F21F111D4802F02FFF48B91D4934
:1056EC004FF49073194A1A4802F030FF4FF490713E
:1056FC00F1E700230022C0E90023174BD3F8103543
:10570C009B071CD5EFF31181202383F31288BFF381
:10571C006F8F4FF0FF356FF04044104ED6E900BC50
:10572C005D4574EB0C07F9D3CCF31303C0E900B35C
:10573C0081F31188BFF36F8F0948BDE8F0880948E1
:10574C00FBE700BF0801002014B50000CCB400003A
:10575C00589E00003DB5000000200E5040270E5012
:10576C000000AD0B0100AD0BF0B5534C85B02578A6
:10577C00002D40F09C80514A01AB07CA83E807001A
:10578C004F491846D1F8102522F00202C1F8102515
:10579C00FFF7C8FE0723672202F001012944013BF1
:1057AC00CDB24FEA5202F7D1052D40F082801A4655
:1057BC0001274148002567265FFA82FC96FAA6F17C
:1057CC005FFA85FEE645B1FA81F16AD30132052A0A
:1057DC00017500F10C00EDD10120002539499A0822
:1057EC0000FA02F212F0670F1CBF5D505A580433D6
:1057FC00302BF4D1E420FDF7B5FC314B0125D3F867
:10580C0018275D2022F4403242F48032C3F8182766
:10581C00D3F8102522F00202C3F8102540F6FF72CF
:10582C00C3F828230022C3F88021C3F88020C3F8D2
:10583C008421C3F88420C3F88821C3F88820C3F8D6
:10584C008C21C3F88C20C3F89021C3F89020C3F8A6
:10585C009421C3F89420C3F89821C3F89820C3F876
:10586C009C21C3F89C20C3F8A021C3F8A020C3F846
:10587C00A421C3F8A420C3F8A821C3F8A820C3F816
:10588C00AC21C3F8AC201D660F4B104A1B68B3FB50
:10589C00F2F358430E4B2B4398470E48257005B036
:1058AC00F0BD07FA01F126EA0106013586E70A4840
:1058BC00F5E70A48F3E700BF080100202C9B000025
:1058CC0000200E5000210E502C00002040420F00F2
:1058DC00509B00000000AD0B0C00AD0B0100AD0B9C
:1058EC00F7B53D4C064623780D46012B0BD03B49B2
:1058FC0040F219233A4A3B4802F028FE40F21921A3
:10590C00374802F01AFE49B9374940F21A23344A93
:10591C00344802F01BFE40F21A21F1E7277D4FB10B
:10592C00324940F21B232E4A2E4802F00FFE40F261
:10593C001B21E5E7636804F1140103F0010301A8DE
:10594C000193FEF719FF2A4B98423CD12F706368E4
:10595C0023F001036360A36843F00103A360254BAC
:10596C00D3F81025950732D4D3F8102542F0020253
:10597C00C3F81025C6B1D3F8482712F0010202BFB4
:10598C00D3F8481741F00101C3F84817194BD3F865
:10599C004017D3F844174C00F9D42AB9D3F8482748
:1059AC0022F00102C3F84827134B144A1B68B3FBBF
:1059BC00F2F3104A03EB43135BB1D2F84017D2F861
:1059CC004417490001D403B0F0BD013BF4E70C4887
:1059DC00F9E70C48F7E700BF0801002014B50000F8
:1059EC00CCB40000589E000047B5000059B500002B
:1059FC000000AD0B00200E502C00002040420F0088
:105A0C000C00AD0B0700AD0B2DE9F0411E46354BDC
:105A1C0004461B7817469DF818805BB9324940F252
:105A2C00E323324A324802F091FD40F2E3212F4841
:105A3C0002F083FD48B92F494FF439732B4A2C4897
:105A4C0002F084FD4FF43971F1E7007AFFF718FE8C
:105A5C00294B0546984241D12046FFF7B7FDEFF39D
:105A6C001180202383F31288BFF36F8F227A234B8C
:105A7C009200134400221A60217A1B680B290AD960
:105A8C001F4940F266431F4A194802F05FFD40F27D
:105A9C0066411C48CCE7B6F5801F09D31A4940F281
:105AAC006C43184A124802F051FD40F26C41F0E789
:105ABC00090101F1A04101F56221C1F82075C1F87D
:105ACC00246580F31188BFF36F8FB8F1000F05D0F8
:105ADC000123227A93400D4AC2F824332846BDE8AC
:105AEC00F08100BF080100207BB50000CCB40000A1
:105AFC00589E000008B500000000AD0B00210E50B0
:105B0C00B8B4000037B40000A6B5000000200E5059
:105B1C002DE9F743244A002053689268DB4303F0D5
:105B2C00670313401C4601260746FCB94FF00109D8
:105B3C001E4B1D4DD3F82063064095F8148009FACE
:105B4C0008F333420AD0EF6847B14046FFF778FDBF
:105B5C000B462969024600914046B8470134052C92
:105B6C0005F10C05E9D103B0BDE8F08394FAA4F576
:105B7C00B5FA85F5AA0002F58071920806FA02F2D0
:105B8C0013420BD001F1A04101F56221D1F800C004
:105B9C00BCF1000F02D00F600968104306FA05F53E
:105BAC0024EA0504C1E700BF0801002000200E50C4
:105BBC0070B5234B02680D689A423CD0214E224CA2
:105BCC00224BB24218BF1C46B4FBF5F305FB13463F
:105BDC009EBBA54231D85C1E1C402ED1B3F5007F74
:105BEC002BD893FAA3F3B3FA83F3D2F804654D7967
:105BFC00097926F0030601F003013143C2F80415BC
:105C0C00D2F8081505F0030521F003012943C2F869
:105C1C000815C2F81035006800F5A07300F5B072D5
:105C2C001C6053F8041B9A42FAD1C0F30830FDF7FC
:105C3C0099FA074870BD074CC6E70748FAE700BF5A
:105C4C0000500550005008500048E8010024F400B2
:105C5C000000AD0B0020A1070400AD0BF8B549B94D
:105C6C0024497C23244A254802F070FC7C212248DC
:105C7C0002F063FC0C230579214C6B43E618377A50
:105C8C00002F34D1E2508B681E4A73600368934234
:105C9C0017D002F54032934213D002F58A22934278
:105CAC000FD002F5805293420BD002F580529342F2
:105CBC0007D002F58052934203D002F580529342F2
:105CCC0002D14B79032B07D90F4994230A4A0B486D
:105CDC0002F03CFC9421CAE7FFF76AFF0C2303FB9C
:105CEC0005440A4BC21A534253412372F8BD08486B
:105CFC00FCE700BF00B60000C3B50000589E0000D2
:105D0C00C00800200050055009B600000000AD0B83
:105D1C000C00AD0B0C2110B50C4B027901FB0232BF
:105D2C00127A012A09D00A490A48D2230A4A02F0F7
:105D3C000DFCD221084802F000FC046822600279B4
:105D4C0001FB023302221A7210BD00BFC0080020F2
:105D5C004AC70000589E0000C3B500000C2108B5CE
:105D6C00094B027901FB0233187A48B907490848F4
:105D7C00E923084A02F0EAFBE921064802F0DDFBC0
:105D8C00831E5842584108BDC00800208CC7000033
:105D9C00589E0000C3B500000C2108B50A4B0279CF
:105DAC0001FB02331B7A5BB9084909484FF4807335
:105DBC00084A02F0CBFB4FF48071064802F0BDFBA1
:105DCC0001220368DA6008BDC00800208CC70000FF
:105DDC00589E0000C3B5000030B50F4A03689342CB
:105DEC00D3F8105515D002F54032934214BF4FF43E
:105DFC007A534FF4FA43A1FB0312C5F12004A5F129
:105E0C002000E94002FA04F4214322FA00F008438E
:105E1C0030BD4FF4FA33EEE70050055070B50C2648
:105E2C000579144C06FB0544247A5CB912491348D5
:105E3C004FF49573124A02F089FB4FF49571104898
:105E4C0002F07BFB4FF4803405688C4073B1002664
:105E5C008B0003F5A073EE50EB580368C3F80443B2
:105E6C00036801F5A87143F8212070BDC5F80843FB
:105E7C00F6E700BFC00800208CC70000589E000049
:105E8C00C3B500002DE9F0414FF00C0E0779144E0C
:105E9C001D460EFB0766367A9DF818305EB911491F
:105EAC00114840F24513114A02F050FB40F24511E3
:105EBC000E4802F042FB4FF00117D0F800E08F4083
:105ECC00DEF8006226EA0706CEF800620668D6F80D
